:020000040000FA
:1000000000400020A9940100E5940100E79401005C
:1000100000000000000000000000000000000000E0
:10002000000000000000000000000000E994010052
:100030000000000000000000EB940100ED940100BE
:10004000EF940100FDBB0000ED9B0100EF94010067
:10005000EF94010000000000A9950100EF94010059
:10006000412F01004DA10100619A0100EF940100B0
:10007000EF940100EF940100EF940100EF94010070
:10008000EF940100EF940100EF940100EF94010060
:10009000EF94010065910100419101007D30010064
:1000A0008D300100EF94010000000000000000000E
:1000B0000000000000000000000000000000000040
:1000C00010B5064C2378002B07D1054B002B02D02E
:1000D000044800E000BF0123237010BD2001002070
:1000E00000000000EC980300044B10B5002B03D077
:1000F0000349044800E000BF10BDC04600000000F6
:1001000024010020EC980300164B002B00D1144B67
:100110009D46402292029A1A924600218B460F4633
:100120001348144A121A29F0EEFB0F4B002B00D093
:1001300098470E4B002B00D0984700200021040068
:100140000D000D48002802D00C4800E000BF21F04F
:100150002FF82000290029F06FF920F047FFC04652
:100160000000080000400020000000000000000027
:1001700018010020EC2F002000000000000000000B
:100180000379044AD35C002B00D183790248DB0059
:10019000C0187047C62D0020609B020010B50400F7
:1001A000FFF7EEFF22790368024903480FF078F960
:1001B00002F064FC620903009CDE0200002803D008
:1001C00001210379014AD1547047C046C62D002051
:1001D00010B5FFF7D5FF034B4068C01A431E984186
:1001E000C0B210BD9D01000070B506000C00FFF705
:1001F000C7FF0C4D2B002833984204D12A0010323F
:10020000002394420BD00023A04208D04368300062
:100210009847641B3379044AE410D454012318002E
:1002200070BDC046609B0200C62D0020014B58687F
:100230007047C046802E0020014B18687047C046AA
:10024000802E0020F0B5194E87B0336805000020DD
:100250000C00019324F058FA30600090206821F0DF
:100260001EFE019B07003360114E022D03D0A068D3
:100270000CF00CFD0600210063680831A81E0393F2
:1002800013F006FC009B04900593002203AB0321AE
:10029000300000F07BFE074B04009F4203D00100BA
:1002A000380021F06BFE200007B0F0BD802E00204A
:1002B000B0D7020020ED02001FB5694600F05AFFDA
:1002C0000400200000F0B8FF002802D1044804B068
:1002D00010BD0CF0FDFE0028F3D10248F7E7C04640
:1002E000ECED0200E4ED02001FB5694600F042FFAC
:1002F0000400200000F0A0FF002802D1044804B050
:1003000010BD0CF0E5FE0028F3D00248F7E7C04628
:10031000E4ED0200ECED020010B50CF037FD034BEC
:10032000002800D1024B180010BDC046ECED0200C1
:10033000E4ED020037B50CF08DFD01AB7F2806D847
:1003400001211870012218000FF020FF3EBD1E4948
:10035000820988420BD8402149420A431A703F2241
:10036000024080204042104358704231EAE7174C67
:10037000010BA0420ED82024644221431970802131
:100380005F344942224020400A43014399705A7029
:100390000321D7E70E4CA04212D81024850C6442EA
:1003A0002C431C703F258024294064422A40284069
:1003B00021432243204359709A70D8700421C1E729
:1003C000044801F0F7FAC046FF070000FFFF0000F5
:1003D000FFFF100074090300F0B589B0019204001A
:1003E0000D0000222F49019802930AF023F9009092
:1003F000002801D043680093012C16D0A4002B19CB
:10040000002427000193019B9D4224D0009B2E686D
:10041000002B04D03100180021F048FD0600002C0C
:1004200037D137002C680435EDE7002404A928688B
:1004300000F0A0FE27000390039800F0FDFE051ECB
:100440000CD1002C07D12200174901980AF0F2F8CC
:1004500000281BD04468200009B0F0BD009B2E008E
:10046000002B04D02900180021F020FD0600002CEC
:1004700009D03A003100029801F0A4FA0B4B9842DF
:1004800001D025003E002C003700D5E7084801F0D8
:1004900091FA3A003100029801F094FA034B984225
:1004A000C1D1BEE7BE1300007E110000ECED0200DA
:1004B0009509030037B501A9050010F0BBFA1E4BE2
:1004C00004002B40062B05D0AB072AD11B4B2A6812
:1004D0009A4226D10199200027F009F901900128BC
:1004E00022D1207843B2002B04DB012023785B006B
:1004F00018433EBD7F23013418403F3B034208D1DF
:100500003F22237819009143802905D021F0EAFD8C
:10051000EFE798435B10F1E7800113400134184383
:10052000EFE7019B012BE0D0019A054905480EF049
:10053000B7FF02F0A3FAC046070080FF98B302009D
:10054000AE09030024DE0200F0B5140087B002906B
:1005500003910022234920000AF06CF800220500D4
:10056000214920000AF066F8012304000493059352
:100570001E4F002D07D068681D4B984203D004A978
:1005800010F058FA07001B4E002C07D06068184B7B
:10059000984203D005A910F04DFA06000024029BF2
:1005A000154D9C420AD10023059A01930093310016
:1005B000280007F0F7FB0E4807B0F0BD002C07D06D
:1005C0000023049A019300933900280007F0EAFB06
:1005D0000399A3000022C95828000CF06FFB0134D6
:1005E000DDE7C0460E160000E6110000272E0300CE
:1005F00020ED0200B00E030068C6020010B5040032
:1006000086B06A4602A810210CF0D6FA0122210019
:1006100068460CF053FB02A902480FF081FD06B0BA
:1006200010BDC04698B3020070B50C68E30726D42D
:10063000A30703D1174B22689A4220D0012820D962
:1006400048680CF007FC060020000CF069FC051C53
:1006500030001AF0EBFF011C0F481DF05BFD011C80
:10066000041C281C1AF0F0FC1DF0BAF9211C1AF029
:100670000FFB032302249843084B0443E418200093
:1006800070BD20000CF04CFC1DF0AAF907F0BAFE7A
:100690000400F4E7B0C602000000204100008080A2
:1006A00030B50B0085B01400012802D9094801F0CB
:1006B00045FB09480121C2680192019D0022A8471B
:1006C0002200039003A9012002F090FA039805B0DC
:1006D00030BDC046020A030074B2020013B5040024
:1006E00008000FF075FD6A460100200000F0C4FC10
:1006F000009B0248002B00D1014816BDECED020022
:10070000E4ED020037B50024022800D98C6848685F
:100710000D680FF05DFD0A4B0100002C00D0094B65
:100720006A4628009847009B002B07D001991C00BF
:10073000002903D018000EF00FFC040020003EBD7D
:10074000DD1000007910000070B5040008001500ED
:100750000FF03EFD2A000100200000F0E7FC0148F8
:1007600070BDC04620ED0200F8B503260500070065
:100770003540022D16D10E4B0340062B12D0FF231D
:10078000DB05C418B443201C002119F0D3FF002856
:1007900006D080231B06E418B443064B2C43E7180D
:1007A0003800F8BD380001F077FE0700F8E7C046D2
:1007B000070080FF000080807FB50B00012803D177
:1007C000002118680CF094FA102102A824F008FB0C
:1007D0000C4902A825F0D4FB032804D10A4825F0CF
:1007E00053FB02F04BF9039B0193002B03D1042828
:1007F00001D10648F3E702A905480FF091FC07B0C4
:1008000000BDC0461B87030090DB0200ECD902004C
:1008100098B3020010B500F0E7FC002804D10348AB
:1008200025F032FB02F02AF910BDC04670DD02004F
:1008300010B5022803D00549054821F07BFB4A6822
:100840000B20096801F0BEF810BDC046E80903009E
:1008500080DC02007FB50D4D0400A84213D00C4E81
:100860000122010030000CF029FA0A49300023F07F
:10087000F5FA04230293084B0394DB6902AA0321CF
:10088000064801939847280004B070BD20ED02008F
:1008900068C60200B00E030084A10200EC9C0200B6
:1008A000F8B50E0000280FD10400284B1D68002168
:1008B000080021F07CFD00270600BD4232D1002552
:1008C000AC423ED13000F8BD0868830714D10368FC
:1008D0001F4A93420DD121F0BBFA050030680CF09D
:1008E000D5F91C4BC26800249A42E0D13468043424
:1008F000DDE7194A934201D00CF0C8F9856B002D51
:10090000ECD0164B2A689A42E8D00025E6E7EA6860
:10091000FB009958002904D0042902D0300002F0CD
:1009200007F90137AB68BB42F1D8C8E7A268EB0012
:100930009958002904D0042902D0300002F0F8F8B8
:1009400001356368AB42F1D8BCE7C046802E002079
:1009500084A10200FDE70000B0D7020078CC0200BD
:10096000030010B50548002B03D125F08DFA02F0E5
:1009700085F8096825F08EFAF9E7C046E8DD02003F
:1009800010B5034809680CF0BDF9024810BDC04617
:1009900068C6020020ED020010B50400486800227D
:1009A0000430074909F046FE064A002803D0406893
:1009B00010F02AF802000449200023F00DFB10BDBE
:1009C000D60F00001B870300330A030070B5150023
:1009D00012680C004068002A0AD1CC0006210430BD
:1009E000214309F027FE002801D043682B6070BD29
:1009F00003799B070BD50C4B9842F8D10B4EF36D46
:100A0000002B03D1012023F07FFEF065F06D06215D
:100A10006A68E4002143002A03D123F0B8FE0023D2
:100A2000E4E723F0AAFEFAE7F49C0200802E0020FF
:100A300070B50625C0000543012229000B4809F0C6
:100A4000F9FD44680600002C0ED1082022F047F87A
:100A5000074B04000360012023F056FE2A0060606B
:100A6000044923F08AFE7460200070BDBC2E002073
:100A700084A10200D60F000010B50C000621C000B2
:100A800001430122024809F0D5FD446010BDC04673
:100A9000BC2E002073B50625C3001D4306000022AE
:100AA0002900104809F0C6FD041E18D102002900D3
:100AB0000D4809F0BFFD041E12D0F4216A46FF3133
:100AC000406800F0D9FA009B002B08D000216A464C
:100AD000080021F0F3F961683000FFF7CDFF60688E
:100AE00076BDC046BC2E0020A8A00200F0B58BB099
:100AF0000600080011001A0010AB1F78314B05AD3D
:100B000001950093052301F07FF99120000121F068
:100B1000E6FF2D4B04A91860059B476043706B6886
:100B20002A4F0370AB6804008370EB68C3702B7CA2
:100B300030003B600FF07EFF0025254B03900C201A
:100B40001D6021F0CCFF234B060003600DF01EF862
:100B5000B0600DF01BF8204B204A1860204B1100AC
:100B60001D70204B70601D701F4B30001D602B00EE
:100B70000CF0DEFE2000049A039921F0E3FF200030
:100B800003F0B4FE0400A84207D10CF0D7FD0E4BD1
:100B90001C60164B186800F00DFF0122144B1A70F0
:100BA0000CF0EEFF0028FBD1124B943318603B6829
:100BB000002B04D00C4B1048196820F01DFB07488F
:100BC0000BB0F0BDF8A10200142F00201C2B002058
:100BD0004001002044A202003C01002020ED020060
:100BE000E82D0020E62D0020440100200400002014
:100BF000E72D0020802E0020410A030000220D492D
:100C000010B50B78DBB2934210D10B4A1478002C4C
:100C100002D001240C701370084B1B78002B07D0F6
:100C2000074A136820331360064B1A68100010BD82
:100C30008268FBE7E62D0020E72D0020E82D00204C
:100C4000400100203C01002073B501A90FF0F2FE25
:100C5000019B06001648502B17D88020400021F039
:100C60003EFF144C05002300943318600023019AC2
:100C70009A420CD15B232800AB5409F00DFA0022F4
:100C8000904209D1943420600B4800F093FEF15C4F
:100C9000E9540133ECE70132AB5C9B2BFBD129001B
:100CA000064825F0F6F900239434236076BDC0464B
:100CB000500A0300802E00205E0A030098B3020051
:100CC000D2235B005843134AF0B51368000C8342EB
:100CD00006D9114C2368013323601368203B13604D
:100CE0001F23050001270D4E9D431468A5420CD813
:100CF00003401A1D202A00D92022094C24680434FC
:100D0000934204D3074B1860F0BD3770EDE7E15410
:100D10000133F5E74001002044010020E82D0020C8
:100D20003C0100204801002070B501F071FA0F4C21
:100D30000F4B0025A3620F4BE56263632300032181
:100D4000A8330D481D60A56425630AF07BFA0B4E9D
:100D5000012130000AF076FA3000094A094923F0EF
:100D60000CFD26606660E56570BDC046802E0020E3
:100D700090DB020060ED0200B82E0020CC2E002097
:100D8000C60F0000D60F000070B50624134EC30036
:100D90001C437368002205002100181D09F04AFC5D
:100DA000021E18D1F06D002807D00430210009F090
:100DB00041FC002801D0406870BD00222100084895
:100DC00009F038FC021E06D12A00064906480EF03A
:100DD00067FB01F053FE5068EEE7C046802E00200E
:100DE000F89C02009B0B030044DC02000A4B10B588
:100DF000040018685B6898420AD00621E300194392
:100E00000430002209F016FC002801D0406810BD13
:100E10002000FFF7B9FFFAE7802E0020074B10B53E
:100E2000D86D002801D1064810BD043000220549C4
:100E300009F000FC0028F6D04068F5E7802E00207D
:100E4000C09B02002E0F00000A00C100062010B552
:100E5000024B0143186823F090FC10BD802E002047
:100E6000062110B5034BC0000143186823F08FFC26
:100E700010BDC046802E00200A00C100062010B51B
:100E8000024B0143586823F078FC10BD802E0020EF
:100E9000062110B5034BC0000143586823F077FCCE
:100EA00010BDC046802E002037B505000C00062876
:100EB00006D108000CF00CF900280DD02C483EBDDE
:100EC000CB071BD54B10042816D819F059FA031577
:100ED0004E4E0700002BF1D02648F0E7C022120644
:100EE000934204D18020C00521F0FCF8E7E75B4283
:100EF0005B0001201843E2E7DB43F9E702281AD13F
:100F00001D4B0B40062B08D08B0714D10A681B4BD6
:100F100092699A420FD1486802E0C80821F05FF850
:100F2000002806D101A920000FF06AF9019901F00B
:100F30005DF94300DDE720000BF0A8FE4369002BBC
:100F40000DD10F4BAD002000ED5824F00BF82A0016
:100F500003000C490C480EF0A3FA01F08FFD2100AC
:100F6000280098470028AAD1EBE70800A7E7C04669
:100F7000E4ED0200ECED0200070080FFC50F010068
:100F8000ECD70200270C030024DE0200F7B50400B2
:100F9000019116001F000BF079FE0569002D09D1A3
:100FA000200023F0DFFF0649020006480EF078FA21
:100FB00001F064FD3B00320001992000A847FEBD0E
:100FC0002E0B030024DE0200F8B50E0015001C00F5
:100FD000930714D113681E4A934202D16B682360B1
:100FE000F8BD1C4A934207D1002802D00BF04EFEF8
:100FF00006006B6848C4F3E7174A934201D12560A5
:10100000EEE75A68022117008F4314498F4202D03D
:101010002D398A42F3D1002817D1114A93420BD0BF
:10102000104A934208D0104A934205D00F4A934287
:1010300002D00F4A934208D10C2021F050FD0D4BF5
:101040004660036085602060CAE725606060C7E78E
:1010500038D70200FCD60200B0D7020051020000CF
:1010600048D2020084D20200C0D20200FCD20200A8
:1010700038D3020098A20200F8B500231360536031
:1010800006000D0014000BF001FEFE2307005B00BC
:101090009D4205D1836A002B02D00F4B48C4F8BD96
:1010A000FB69002B04D02200290030009847F6E7A6
:1010B000B86B0028F3D00621ED00294304301A0054
:1010C00009F0B8FA0028EAD042682300390030005D
:1010D000FFF77AFFE3E7C046889C020070B5160070
:1010E00004000D00FFF7C8FF3368002B15D10B4E2D
:1010F000A3070BD10A4B22689A4207D12B006268E2
:10110000084930000EF0CCF901F0B8FC200023F0C3
:1011100029FF2B0002000449F3E770BD74D90200D7
:10112000B0D70200B40B0300DB0B030073B504005F
:101130000D0016000BF0AAFDC369002B09D0042294
:101140000196009229006A4620009847009B002BD8
:101150000AD0200023F006FF2B00020003490448B8
:101160000EF09EF901F08AFC73BDC046DB0B030054
:1011700074D9020073B504000D000BF087FD174B06
:10118000426A06009A4226D0002D03D1102021F099
:10119000A6FC0500736A002B12D1F0216A46FF31CC
:1011A0002000FFF769FF009B002B0FD1200023F0E8
:1011B000D9FE0B4902000B480EF072F901F05EFCFB
:1011C0002900200098470028E7D076BD290068460E
:1011D00007F0D6FAF9E72000F7E7C046914F020082
:1011E0004A0B030024DE020037B504000BF04EFD6D
:1011F000856A002D02D02000A8473EBDFE216A4628
:1012000049002000FFF738FF009B002B05D06A46FD
:101210002900280020F052FEEFE7200023F0A2FE74
:101220000349020003480EF03BF901F027FCC046D9
:101230007C0B030024DE020030B505008FB002F005
:1012400033FF28000BF022FD846A002C05D0280013
:10125000A047040020000FB030BDFE216A464900BF
:101260002800FFF709FF009B002B16D002A801F011
:10127000DFFB002807D16A46010020F01FFE0400B2
:1012800001F0F4FBE6E7039B084918680DF0E6FD62
:101290000028DFD1039801F0F1FB280023F062FE63
:1012A0000349020003480EF0FBF8F4E770DD02008A
:1012B0007C0B030024DE0200F0B513688FB00793A7
:1012C000002800D06FE00400131D0493FF220B00E0
:1012D000090A1340114002934B000693069A029BA1
:1012E00005919B18049A9B00D558D3185F68381E47
:1012F00009D00020BB0706D1924B3A689A4202D12E
:10130000380023F037FA059B18184600002D4FD1FE
:10131000029B2500581C83199800019321F0DFFBE4
:101320000600002C01D001250460029BA8009A0051
:101330003018049928F0CBFA029B5B190393039BA6
:101340009800059B3018DA00029B9900049B5918FD
:1013500028F0BDFA039A069B944663441D00002FB3
:1013600012D003243C4000D0AAE0764B3A689A425F
:1013700000D0A5E0380023F015FA032307000193FD
:101380007B689C4200D27DE0039B0399EA1A5208D5
:1013900033000798FFF7FAFD0400300021F0CEFB80
:1013A00020000FB0F0BD13000833049354688DE79C
:1013B000AB072ED12B68644A934202D0634A934212
:1013C00027D128000AAA09A90BF0E8FD099B2500EE
:1013D000581C029BC01883199800019321F07FFBD1
:1013E0000600002C01D001250460029BA8009A0091
:1013F0000499301828F06BFA029B0A995819099B36
:1014000080009A00301828F062FA029B099A9B1813
:1014100093E7029B181D83199800019321F05FFB4D
:1014200003940600002C02D0012304600393039B65
:1014300004999800029B30189A0028F048FA029A02
:10144000039B9446280063440AA90393FFF792FE86
:1014500005002800FFF7F0FE041E00D16FE7019B96
:10146000039A934207D8D900300021F056FB0600BA
:10147000019B5B000193039B9B009C51039B0133E9
:101480000393E6E7E3000293BB68E2009858002864
:1014900014D0042812D0019B184205D12C4B0268AD
:1014A0009A4201D124F030FFAB00F050B968E2005D
:1014B0008C4662445268F31802355A6001345FE783
:1014C0009E210AAA89003800FFF708FE00210AAA17
:1014D000080020F0F3FC0021FFF74CFE0290029878
:1014E000FFF7AAFE041E00D14EE7019A6B1C9A4238
:1014F0000BD853000193042B01D204230193019BC9
:101500003000990021F009FB060003231C4207D19B
:101510000F4B22689A4203D1200024F0F5FE04000C
:10152000F0210AAAFF313800FFF7D8FD0AAA0021EE
:1015300001200C9420F0C2FCAB00F450F3180235EB
:101540005860CCE778CC020068ED020074B202006B
:1015500098B3020070B50C0086B0150083071AD14D
:1015600003681F4A934202D01E4A934213D102AA33
:1015700001A90BF013FD019BA3422AD319D8029BAA
:10158000A4001C19221FA34201D106B070BD11682E
:10159000140002C5F6E702A9FFF7ECFD00230600E0
:1015A0000193019B3000A34206D3FFF745FE0028BC
:1015B000EBD022000C490EE0FFF73EFE002808D0D9
:1015C000019A0A49A31A5B189B00013258510192F3
:1015D000E7E7019A064907480DF062FF01F04EFA6D
:1015E00068ED020074B20200680C0300FFFFFF3FC9
:1015F000450C03009CDE0200F7B5FF260D00090A2A
:10160000354014000E4083072BD10368354A9342BE
:1016100002D0354A934224D101AA69460BF0BEFCA0
:101620000098AB19834255D801998300B200CB18BA
:10163000A218043B94420DD1AF00401BC919801B76
:1016400020F0B5FE019B2060DF193A1F0434BB4235
:1016500003D1F7BD1F6880C4EBE711681700216054
:10166000F3E70021FFF786FD002307000093009BAE
:10167000AB4219D30021080020F099FE0500380084
:10168000FFF7DAFD011E1CD1AB68B34222D3B200D2
:10169000A418991B25608A009B00043C9A4214D12F
:1016A000280020F0A0FED4E73800FFF7C5FD002891
:1016B00010D0009AAB1A9B199B000132185100926E
:1016C000D5E7280001F034FAD9E7E86880580432F9
:1016D0002060E2E7009A054905480DF0E1FE01F0BF
:1016E000CDF9C04668ED020074B20200450C03005B
:1016F0009CDE0200F0B591B01D0006000C00170042
:101700000BF0C4FA334B984207D12B003A0021006A
:10171000300007F0F1FF11B0F0BD826A2E4B002AB5
:1017200008D09C4230D13000904728600028F2D089
:101730000120F0E79C4227D1FE2101AA4900300098
:10174000FFF79AFC019B002B0DD1D72101AA49007C
:101750003000FFF7C3FC039401AA0021012020F010
:10176000ADFB2860E4E704A801F062F9002807D186
:1017700001AA010020F0A2FB286001F077F9D7E769
:10178000059B2B600220C6E7002CDED138000BF051
:101790007DFA12490DF062FB01AA00280ED0104913
:1017A0003000FFF769FC019B002B10D001AA21003B
:1017B000200020F083FB28602000ACE709493000BE
:1017C000FFF75AFC019B002B01D00397C4E72F6061
:1017D000D8E7C046E4C7020020ED020064DA020048
:1017E00023020000DD02000010B504000DF09EFE93
:1017F000002808D0002320001A001900FFF7C6FBBC
:101800000400200010BD200024F04FFB0028F8D178
:101810000249034824F045FBF2E7C046FD0B0300F4
:1018200024DE02007FB5C30006201843054B01905B
:101830000491052001A902930393059210F024FF5F
:1018400007B000BD20ED02001423F0B58DB000AF4D
:10185000FA1805000C00FFF70FFCBB69002B06D03F
:1018600022002C492C480DF01BFE01F007F9786985
:1018700000284CD1280024F077FD0028F0D0142354
:10188000FD21FA1828004900FFF7F6FB10227869BD
:10189000B9180FF0CFF8B860200020F0A5FB6A4619
:1018A0003E69B968731C7B60C318FB600733DB08B3
:1018B000DB00D31A9D466D463200280028F007F859
:1018C0002E23AB557B682000EB18BB6020F091FB0A
:1018D0000600200020F088FB31000200B86827F0E5
:1018E000F6FFF968280000F0D1FCC3000620184379
:1018F0000A4B10223B627B62094BBA18BB62012380
:10190000FB620B33F861D118052010F0BDFEBD4617
:101910000DB0F0BD660B0300A0DA020020ED02005E
:10192000ECED0200F0B5174C0F00616895B0039123
:101930002168060008A804916260236001F078F82D
:10194000051E06D0039B09986360049B236001F089
:1019500095F833683A00310005A8019314F008FCAB
:101960002B002A00019905A805F07CFA20F097FACF
:10197000050001F07BF82800039B6360049B236053
:1019800015B0F0BD802E002010B5040010F0E8F86E
:10199000031E054802D0054920F0CCFA2200044974
:1019A0000DF07EFD01F06AF808DC02008C0A0300ED
:1019B000B50A0300010010B5014820F0BBFAC0468B
:1019C0009CDE0200F0B58BB004900F00039220283B
:1019D00003D191420FD0AF4EBFE0049B1B2B01D02F
:1019E0001E2B0DD1039938000BF0E2F9049B00285F
:1019F00003D01B2BEFD1A84EAFE01B2BFBD1EAE7A6
:101A0000049B212B3FD103980DF090FD002806D0B8
:101A10000399380024F04FFA0028ECD1DBE70324C7
:101A2000039B1C4005D1039A9C4B126805929A4275
:101A300023D0049B9A4A9B0038009C5823F092FACA
:101A40000500039823F08EFA2B00009022009549A0
:101A500095480DF025FD47E1039BA20008339D58F2
:101A600028000DF063FD002800D158E1290038005E
:101A700024F021FA0028BED10134039B5B68059352
:101A8000A342E9D8A7E70126314200D116E1039B22
:101A90004D101E4000D1E7E05C10049B1D2BC8D800
:101AA000180018F077FC1E0028002A002D004500C1
:101AB0004C004E0050005D0066007B008300B400C7
:101AC0001E0028002A002D0045004C004E0050004A
:101AD0005D0066007B008300CC00D000C6FFD40010
:101AE000D80025432E0070000300734000D5B6E0F7
:101AF0000126064331E06540F4E72C402600F2E77A
:101B0000002C02DA6948FFF755FF1F2C0ADC684BEE
:101B10002341AB4206DBC0232E001B062341A64017
:101B2000AB42E0DDE917280020F0CDFA070049E0DC
:101B3000002CE7DB1F2C00DD1F242541D2E72E19E6
:101B4000D1E72E1BCFE7210028000CF099F80028E0
:101B5000E8D1012665436D002E4330000BB0F0BD87
:101B6000002C00D1DDE02100280023F054FB06000A
:101B7000B9E7002C00D1D4E0280019F057FD051C6E
:101B8000200019F053FD011C281C19F081F80323D3
:101B900002269843474B0643F618DEE7002C00D197
:101BA000BFE02100280023F026FBE0E72F00002CF7
:101BB0002ADA280019F03AFD0323022798433D4B07
:101BC0000743FF1838000BF061F88369002B00D140
:101BD0002FE7039A39000498984756E001231C42E6
:101BE00006D0390030000CF04BF800289AD17E4323
:101BF000012C00D177E73900380064100CF040F870
:101C0000002800D08EE77F43002CE7D16BE7002C43
:101C100000D186E00021022011F03AFF21000600E9
:101C2000280023F0F8FA012740003843B060210073
:101C3000280023F0E0FAB8400743F7608DE7A5429B
:101C400000DAD8E6C7E6A54200DDD4E6C3E6A54241
:101C500000DCD0E6BFE6A54200DBCCE6BBE6300008
:101C600020F040FA060078E70323039A1340022B82
:101C700024D1114B1340062B20D0280019F0D6FC9C
:101C8000039A011C049808F007FF061E00D064E7C1
:101C9000CFE6C046E4ED0200ECED020068ED020084
:101CA00064D60200F80A030024DE0200E30A0300FF
:101CB000FFFFFF3F00008080070080FF049B1F2B79
:101CC00000D07FE703980AF0E1FF83690400002B4E
:101CD0000CD1636A002B11D1039823F043F9134907
:101CE000020013480DF0DCFB00F0C8FE3A00039937
:101CF00004989847061E00D02FE7EAE706A9039844
:101D0000FFF738FA04002000FFF796FA002800D108
:101D100061E639000BF04CF80028F4D06BE603952F
:101D200087E60449044820F005F9C0464A0B030041
:101D300024DE02001D0B0300D8DE0200010010B5F6
:101D4000014820F0F7F8C04624DE0200F8B5040090
:101D50000D0017001E00002908D018680AF096FF31
:101D60006368834202D00548FFF7E8FF33003A007A
:101D70002900A068FFF70AF9F8BDC046740A0300FD
:101D800001214000014310B5024824F083F800F01F
:101D900075FEC046BCDC0200010010B5014820F011
:101DA000C9F8C04680DC020010B51C0002AB1B78ED
:101DB000002904D0002B02D10E48FFF7BFFFA2423A
:101DC00007D1824214D003000B490C480DF068FB88
:101DD00006E0824206D9121A094908480DF060FB54
:101DE00000F04CFE844203D2030022000549ECE7D8
:101DF00010BDC046900C0300B90C030024DE0200A5
:101E0000F20C0300240D0300F0B50024170087B086
:101E10000C9D03900491059302940194059B9C42B0
:101E200006D1019B039A934240D22548FFF786FFD3
:101E3000039B9C4213D26B889B05F6D4019B049AAA
:101E400001330193A300D058FF226B88A6001340F2
:101E5000012B24D10BF03CF90D9B985517E006237C
:101E600029880022C9001943380008F0E3FB002844
:101E700010D16B88DB0506D52A88124912480DF06F
:101E80000FFB00F0FBFD0D9A6968A300D1500134EF
:101E90000835C3E7029B406801330293D4E7022B65
:101EA00001D10AF0D7FF0D9B9851F0E73B68029AE9
:101EB000DB08934201D90548B8E707B0F0BDC0463A
:101EC0006A0D0300530D030024DE02008B0D030096
:101ED000054B10B5186826F0C6F9044B002800D150
:101EE000034B180010BDC046002A0020ECED020094
:101EF000E4ED020010B5034B186826F0BCF9024867
:101F000010BDC046002A002020ED020010B5034B92
:101F1000186826F01EFA20F0E5F810BD002A00200F
:101F200010B5034B186826F01BFA20F0DBF810BD43
:101F3000002A002010B5034B186826F018FA20F08C
:101F4000D1F810BD002A002010B5034B186826F008
:101F5000C3F920F0C7F810BD002A002030B593B0B7
:101F600010F08CFF184C200026F0C3FD174D286898
:101F700015F044F8200026F0C1FD10F06FFF25F0A9
:101F80005BF91FF0E5FF0400296803A826F061F95A
:101F90000F4B20000A93039B0B93049B0C93059B10
:101FA0000D93069B0E93079B0F93089B1093099B21
:101FB0000193119325F0A9F8200020220AA911F01D
:101FC000A1F8044813B030BD082A0020002A0020E0
:101FD00055BA11C020ED0200F8B5114D0400286873
:101FE00026F041F9002802D12000FFF7B7FF0D4B82
:101FF0001B78002B0DD10C4E3478E4B2002C08D1A4
:1020000001272868377003685B689847054B347070
:102010001F70286815F0CEF820F064F8F8BDC046AF
:10202000002A0020E92D0020EA2D0020F0B58DB017
:102030001FF08EFF0E4B02689A4217D10469416867
:10204000089444698268C36809948469C0690A94E1
:1020500084466C4605910692079308A8E0C8E0C440
:10206000604620600348006826F0DDF80DB0F0BD42
:1020700055BA11C0002A0020004870476CA4020025
:1020800010B5040001F0F6FF074B02001B69074979
:10209000074821F0A1FF10F059F8012C01D110F0F0
:1020A00077F8044810BDC046802E0020240E03009F
:1020B00068C6020020ED020010B50AF0CBFE07F062
:1020C000D5FB014810BDC04620ED020010B50FF051
:1020D0003DFD014810BDC04620ED020010B50FF0D7
:1020E0002BFD014810BDC04620ED020010B586B0A2
:1020F000040005AB04AA03A902A800F033F9059B6C
:10210000029A0193049B064900930648039B21F021
:1021100063FF012C01D100F061F9034806B010BD46
:10212000390E030068C6020020ED020010B5084C0D
:10213000002805D1A834236801305B00184310BD86
:1021400008680AF087FEA83420600248F7E7C04616
:10215000802E002020ED020010B50400082020F0A1
:10216000BEFC024B4460036010BDC04668A502007F
:10217000074B5B69002B01D1180006E05A688242C8
:1021800004D8801A04308000C05870471B68F1E7FB
:10219000802E002070B5144D04006B699868DB68D0
:1021A000834215D30230C00020F0A6FC6B690028E2
:1021B00003D198684000FFF7E7FB5A68D9680360CD
:1021C0009B6852185B00836000234260C3606861B3
:1021D0006A69D3685068591C04339B000138D16088
:1021E00040189C5070BDC046802E0020074B4118FF
:1021F000884204D3D8B2002800D1013070475A0178
:10220000D318027801305340F2E7C04605150000AC
:10221000034B044A5A6100229C331A607047C0463F
:10222000802E0020A4A50200F0B585B001900E001C
:10223000FFF7DCFF144B02905C69002C01D12000F9
:102240001EE0270010373D00E3689B00FB18039356
:10225000039B9D4201D32468EFE72868029A037824
:1022600093420FD14378B3420CD10230320001992E
:1022700027F01FFB002805D1ED1B6068AD10281862
:1022800005B0F0BD0435E3E7802E0020F0B585B041
:1022900003900191FFF7C8FF002857D1304D019BF3
:1022A0009C35DC1C2B68002B17D02D4F2C4EA437EF
:1022B000A0363A683168A2188A422BD90200611808
:1022C000180020F037FC029000281DD10200396868
:1022D000286820F02FFC029B2B602600802C00D267
:1022E0008026300020F008FC1D4D2F009C37386000
:1022F00000282DD1200020F0FFFB260038600028A8
:1023000026D12000FFF740FB33681B1933602B6890
:10231000002BE2D0124A1249A43213689C310D6896
:10232000E41801990398ED181460FFF75FFF019B13
:1023300028701A006B70A81C039927F0C8FA0022B5
:10234000019B2800EB189A70FFF724FF05B0F0BD41
:102350002B00A0331E600023A4352B60DAE7C046B3
:10236000802E0020F7B51D00160000230700036033
:102370000B6033602B60174B00915C69002C02D01E
:10238000154B9C4204D133682A68D3182B60F7BDE3
:102390003B6801333B60E268009B94461B68009AEF
:1023A0000193634413602200E36810329B00D3184A
:1023B0009A4207D320000FF0D3FD2B682468181829
:1023C0002860DBE702CA30684978033009183160B9
:1023D000EEE7C046802E0020A4A502000C4B70B58D
:1023E0005C69002C02D00B4B9C4200D170BD2600D2
:1023F000E36810369D007519AE4201D32468F0E7FA
:1024000004CE05490232054821F0E6FDF4E7C04656
:10241000802E0020A4A50200870E030068C60200DB
:1024200010B5102020F05BFB0400034B08C024F023
:10243000B2F8200010BDC046B0C6020070B50C0056
:10244000052804D817F09CFF06030C04131C002475
:10245000200070BD8B680E4C002BF9D10D4CF7E7B6
:10246000081D24F0F1FC012440000443F0E7FFF7CD
:10247000D7FF211D0500043024F015FA2C00E7E7F2
:10248000FFF7CEFF211D0500043024F01CFAF5E70C
:10249000ECED0200E4ED020070B5050083070CD1FD
:1024A000104B02689A4208D1FFF7BAFF291D0400B9
:1024B000043024F0EDF9200070BD28000AF0CAFCB9
:1024C000C0231B06984206D180200021C0051FF0C2
:1024D000FAFD0400EFE70124C317C018584040007C
:1024E0000443E8E7B0C6020007B5C30701D54010B2
:1024F0000EBD043001A910F095FC002801D0019810
:10250000F6E7024902481FF015FDC046E12A030024
:10251000F8DC0200F0B58BB0019001200D0017002F
:1025200008402BD04B10022203A904A824F06BF81A
:1025300004AEFB072BD57B10022203A904A824F0CC
:1025400062F804AD019B092B01D0162B3FD16B68BB
:10255000002B68D0300024F0D2FC041C280024F0AA
:10256000CEFC011C201C18F093FB0323022498438B
:10257000714B0443E41820000BB0F0BD03240C4061
:1025800023D16E4B0A689A42F5D10E1DD1E7032381
:102590001F4205D1694A3968914201D13D1DD1E7F9
:1025A0003B40022B0CD1664B3B40062B08D0300041
:1025B00024F0A5FC3A00011C019808F06DFA04E033
:1025C0003A002900019806F079F80400D3E7019B4E
:1025D000182B00D98AE0FFF723FF0400019817F0B9
:1025E000CFFE444A3E50500D13191F72336572449A
:1025F0004A3E50500D13191F72336500201D2A00EA
:10260000310024F0F9F9B6E7201D2A00310024F04A
:102610002DFAB0E7201D2A00310024F056FBAAE76E
:102620006B68002B03D1474947481FF083FC07A87C
:1026300023F0B1FF2B003200201D07A910F08AFA09
:1026400007A823F0ADFF96E76B68002BEBD007A837
:1026500023F0A1FF211D2B00320007A8EEE7201D6B
:102660002A00310024F043FA85E7201D2A003100BA
:1026700024F0B8FA7FE7201D2A00310010F0F6F9A7
:1026800079E73800FFF730FF021E02DA2F48FFF724
:1026900091F9019B201D3100032B01D0102B02D199
:1026A00010F07CF967E724F045F964E76B68002BCC
:1026B00003D02B78DB0700D579E7201D2A003100F5
:1026C00024F080FB57E76B68002BACD0FFF7A8FE27
:1026D0000700211D04302B00320010F03BFA07A93F
:1026E00002200797089411F0D3F96EE72900300013
:1026F00024F0ACF80300019800241938042800D90C
:1027000039E7134C17F03CFE0308140C1000002BA3
:1027100000DB30E70F4C2EE7002B00DC2BE7F9E75E
:10272000002B00DD27E7F5E7002B00DA23E7F1E7D0
:10273000002B00D01FE7EDE700008080B0C602004C
:10274000070080FF1D0B0300D8DE0200E30A030030
:10275000E4ED0200ECED0200F0B58FB007924268A4
:10276000089394460368040003939B680430009325
:10277000634403600D001FF000FD069060681FF0C9
:1027800012FD431C63600378A04A0193831C6360BD
:10279000437800210093C31C636083780493031D76
:1027A0006360C3782000029323001033A360069B6C
:1027B00014309A1893000593C318E360059B0C33FB
:1027C0001A00099327F09FF8009A069B9B1A049A17
:1027D0000A939E1A371D009ABF00E7190123AA42E7
:1027E00000D36DE0019A1A4207D12B00009A884964
:1027F00088480CF055FE00F041F9009B0336990023
:10280000089BB6005918009BA619E81A11F040F968
:10281000009B043F7060089A09999B0061189B18FF
:1028200004399A4200D078E0079B002B03D1019B2A
:102830001B0700D4D0E002230026019A1A40099217
:10284000B24204D0079821F05FFF060038600027ED
:10285000039BAD00DB680B93089B5D19079B9F42B0
:102860005ED1029B039903339B00CB1800210A9E83
:10287000029F0536B600A219002F00D07DE0059B0F
:10288000029920338900E3185218934200D97DE061
:10289000009B143E9D000B9BA6195D19049B9F4253
:1028A00000D27DE065680DA80D951FF066FC281824
:1028B0000378451CFF2B00D09DE065600FB0F0BD94
:1028C000019A1A4205D00336B600534BA619043FAD
:1028D0007360079B002B16D1019B1B0713D4009B31
:1028E000029A9A1AAA4216D8029B009A5B199B1A5E
:1028F000039A9B00D3182A0005991C31611800988F
:102900000433824201D32B0085E79000DE68404209
:102910000E500132F3E72B0069E701CA48617FE7F7
:10292000009B049800221B189C462968944505D8F2
:10293000099B002B1CD1CA0838490EE00B9B900064
:102940001858884212D1069B013B9B1A9B00E31842
:102950005A69002A05D0CA0831492E480CF0A0FD5A
:1029600049E76A685A610137083577E70132DDE7E0
:102970006A68300021F001FFF5E75058002802D1C5
:10298000484218585050013F043175E70432111F76
:102990000968002900D078E79A1A92102149DCE7EB
:1029A0003269002A10D10820019B296803420FD008
:1029B000029B039804339B001858043007F03AFE3A
:1029C000002805D0436833610137043E043565E7CC
:1029D0002A681549D208C0E7049B002B02D013488F
:1029E000FFF7ACF9019B9B0700D45BE7049821F04B
:1029F0008BFE386056E7069A561EF61AB600A619E0
:102A00007069FFF7A9FB7061280051E7FDFFFF3FE8
:102A1000B90C030024DE020060ED02003D2B030030
:102A20000E2B03005E2B0300902B0300C02B030032
:102A3000C4600561466187614146C16149460162E2
:102A400051464162594681626946C1627146816060
:102A5000004908475D2A00000020C046024B9A68E2
:102A60000260986000207047802E0020024B9A6818
:102A700012689A607047C046802E00200E4A936804
:102A8000002B01D122F0E9FB196858609160181CF5
:102A9000C468056946698769C1698846016A8946CB
:102AA000416A8A46816A8B46C16A8D4681688E4634
:102AB00001207047FEE7C046802E0020002803D08A
:102AC000012807D0002070478B680448002BFAD1FA
:102AD0000348F8E78B685B001843F4E7ECED02006D
:102AE000E4ED0200044B88600B60044B08004B606F
:102AF0000023CB607047C046D4A2020039220200F6
:102B00000021836870B5DA0FD21852109B00043B85
:102B10008A4201DC054870BDC5688C002C19ED584F
:102B200026682560C4680131E650F0E720ED020018
:102B300070B583680D00416804008B4212D3C90050
:102B4000C0681FF0EAFF63680A495A00A368626020
:102B5000D21A013352189B00E0609200C018002185
:102B600026F0D1FEA368E268591C9B00A1600248D0
:102B70009D5070BDFFFFFF3F20ED0200F8B507003C
:102B800016004C10836810D5E4180ED500240C4DA7
:102B900038002900FFF7CCFFBB68013BFA689C4274
:102BA00007DBA4002800A650F8BD9C42EFD91C000A
:102BB000EDE798001118043909681150EDE7C04697
:102BC00020ED020070B50025040085601021C0686A
:102BD0001FF0A3FF04232900E0606360102226F0A9
:102BE00092FE014870BDC04620ED020030B50C00D9
:102BF00085B0104B02AD04310093013802230195DA
:102C0000FFF702F923680C4C996801290FD9D8689D
:102C10000A4B029AC91889004118A24200D1002229
:102C20002D79074B002D00D1064B1FF013FB200020
:102C300005B030BD98B1020020ED0200FFFFFF3F5C
:102C4000E4ED0200ECED020070B50C680B00A16829
:102C50000200002903D1194919481FF06BF92068B7
:102C6000012A27D05A6800230AF0CEF9E168A26849
:102C700086008B19013A1D680436A260121A920070
:102C80008919180026F02CFE0021A368E0689A003C
:102C90001150616804290BD95B00994208D9490891
:102CA0008900E0681FF039FF6368E0605B086360DB
:102CB000280070BD01225242D5E7C046E72B030031
:102CC00018DB020007B500900191022069461FF051
:102CD00029FB694601900220FFF7B6FF00480EBDB0
:102CE00020ED020070B50E000D490500002421F012
:102CF000B5F8B368A34204D828000A4921F0AEF819
:102D000070BD002C03D00849280021F0A7F8F16815
:102D1000A30001225958280009F0D0FF0134E8E748
:102D200095370300E5350300FB2B030070B5032640
:102D300004000D000E4029D1174B0A689A4225D194
:102D400083688A6899184368994210D904318900C8
:102D5000C0681FF0E2FEAA68A368E0609B181A1D15
:102D60009B006260C0181022310026F0CCFDA368E1
:102D7000E9689800E3681818AB689A0026F0A7FD88
:102D8000AB68A268D318A360044870BD2900200076
:102D90001FF0D1FAF8E7C04674B2020020ED02003D
:102DA0000B4B70B5050003600C000800042900D22D
:102DB00004206860AC6080001FF091FE6A68E860E3
:102DC000121BA40092000019002126F09CFD70BD8A
:102DD00074B202007FB50D001600122847D01ED82D
:102DE000052824D0002407281ED103A910000AF0CA
:102DF0006FF8041E18D0039B002B01DA0023039305
:102E0000AB68039858431FF0AFFAC36804000093FF
:102E1000AA68039B0421E86821F09CFE04E00300FB
:102E2000193B0024042B28D9200004B070BD0323D3
:102E300000241340A342F7D11C00194A336893427F
:102E4000F2D18B68B26898181FF08EFA0400AB6854
:102E5000E9689A00C06826F03AFDA868E368800037
:102E60001818B368F1689A0026F031FDDCE711000C
:102E70002800FFF75BFF2C00D6E793070DD1084B26
:102E800012689A4209D1B36800938A68F368C968E6
:102E900009F0D4FB034C0028C6D1034CC4E7C0465C
:102EA00074B20200ECED0200E4ED0200F0B503277D
:102EB00004008BB00E0010000F40002A33D1002F09
:102EC0002AD1654B0A689A4226D104AAA06809F063
:102ED00045FB002802D16148FEF75EFF0599049B7F
:102EE000A268E0685D1A521A9B008900411892009E
:102EF000C01826F0F5FCA368AA00E818E368800073
:102F000018185242390026F0FEFCA3685D19A5602E
:102F1000534D28000BB0F0BD07A902200794089676
:102F2000FFF792FEF4E7042A2CD1A068002F1FD1EE
:102F3000494B0A689A421BD107AA09F00FFB0028E7
:102F400006D107AAE168A06821F017FE0500E0E7B6
:102F5000079B0898C01A1FF007FA8368E1689A0077
:102F6000079B05009B00C918C06826F0B0FCD0E79D
:102F700000230100320020680AF046F8E368800070
:102F8000C558C6E7364D002F60D1334B0A689A42C8
:102F90005CD103AA02A90AF001F807AA3100A068CF
:102FA00009F0DCFA002896D0079B029A08999E182F
:102FB0000191761AE068002E27DDA368F118636896
:102FC000994206D989001FF0A8FDA368E0609B190B
:102FD0006360029A079BA1689B18F21A521808991D
:102FE000E0689B00890041189200C01826F078FC28
:102FF000029B03999A00079B9800E368181826F033
:103000006FFCA3689E19A66083E79B000399C01814
:10301000920026F05CFC0899A268E368521A8900C5
:10302000019359180798029B9200C018019B8000D9
:10303000181826F055FCA368B200F018E368800069
:1030400052421818390026F05EFCDAE7020031001F
:1030500020001FF0CAF95CE7D4CE02001B870300F2
:1030600020ED0200F0B5124B87B003AD40C9013826
:10307000009301950323FEF7C7FE68680D4F1E24D9
:10308000B84202D023F059F944B2A8680023B842EC
:1030900002D023F052F943B270680399437104716E
:1030A00016F0EAF8706816F051FC380007B0F0BD71
:1030B00024B3020020ED020030B5124B8BB003ACFC
:1030C00020C90138009301940323FEF79DFE616837
:1030D00006A821F096FE039B089A5900237A0093D4
:1030E0006868079B14F068FC021E05D00649074873
:1030F0000CF0D6F9FFF7C2FC06A905480DF010F850
:103100000BB030BD3CB30200FE2B0300BCDC020060
:1031100074E2020030B5114B89B002AC20C901380D
:10312000009301940323FEF76FFE012205A9606856
:103130000AF04AF8029B059A5900237A00936868BE
:10314000069B14F049FC021E05D0054905480CF009
:10315000A7F9FFF793FC044809B030BD54B302004F
:10316000102C0300BCDC020020ED02000021F8B5A9
:10317000476808001FF01BF908250600B1223B68CC
:10318000D2009D5080220020920019009850012208
:10319000FC319A6088605A61104A8868002803D11F
:1031A000002A19D0013AF8E70024A24204D00C4AC0
:1031B0009C5863425C41E4B2380016F0C7FB002C17
:1031C00005D001216B0019433000FFF7B1FC013538
:1031D000782DD3D13000F8BD1400EDE710270000A2
:1031E000C4040000044B88600B60044B08004B6073
:1031F0000023CB607047C046D4A202000524020021
:1032000013B50400080001A90CF0FAFF002C03D04C
:10321000012C07D0002016BD019B0548002BFAD1D8
:103220000448F8E7019924F062FA40002043F2E7ED
:10323000ECED0200E4ED0200F0B585B004000800FA
:1032400003A915000CF0DCFF0600002D07D10300D8
:10325000039A2F49200020F0BFFE05B0F0BD039B6C
:103260000200C318002101200193019B934206D85C
:103270002727002900D0053F3A0026491AE0137895
:10328000272B08D0223B5D426B41DBB20132002B81
:10329000EBD02727F0E700230100F7E7300024F008
:1032A000F3F90500300024F00AFA0600AF4205D118
:1032B0003A001949200020F08FFE14E017495C2DD8
:1032C0000ED02B00203B5E2B01D82A00D5E71449F5
:1032D0000A2D05D013490D2D02D0092D0CD112490C
:1032E000200020F0BBFD019BB342D7D83A0009492A
:1032F000200020F071FEB0E7FF2D02D82A000B4914
:10330000D8E70B4B2A000B499D42D3D90A49D1E794
:10331000962C03009C2C03009B2C03009F2C030085
:10332000A22C0300A52C0300A82C0300AB2C030047
:10333000FFFF0000B22C0300B92C0300F7B51E00FC
:1033400008AB1D78294B0C001700984206D12B00C2
:103350003200390009F058FE2018FEBDF30715D5DC
:1033600076100196019BE219002B2ADA00213F26F4
:103370000127501EA04219D2002900D0019320003D
:10338000002DEAD11A491B481EF0D4FD01A93000D6
:1033900009F09EFD0028E5D1300021F0E3FD16493B
:1033A000020016480CF07CF8FFF768FB0278B24385
:1033B000802A01D039000133421E002BCDD01000ED
:1033C000D8E72000012600243F27904204D3002C98
:1033D00000D001931000D3E7013BBED3340001308D
:1033E0000178B9438029F0D10130F9E774E2020095
:1033F0004B2C030018DB0200232C030024DE020008
:10340000F0B587B004000E00170009F03FFC02A9D8
:10341000050020000CF0F4FE0400042F4ED1B30789
:1034200034D1274B32689A4230D105AB04AA03A9A4
:10343000300021F0A1FA059B224FBB4204D0032BA0
:1034400002D02148FEF7A8FC039B2600BB4207D010
:103450000122210000922800029AFFF76FFF060068
:10346000029A049BA118BB4206D0012128000091BA
:103470002100FFF763FF01000E208E4204D88A1B53
:103480002800310022F005FE07B0F0BD0023029AAB
:103490000093210033002800FFF750FF027801213C
:1034A00053B2002B06DA4023012101E001315B0811
:1034B0001342FBD101220CF069FEE5E70020E3E7AF
:1034C000D4CE020020ED0200652C03000300203B57
:1034D0005E2B00D93F20052320384343014A106862
:1034E000C018704768000020044B0B6043684B60B5
:1034F00083680800CB6000238B607047F4B402003F
:1035000070B50500080068430130401008300C0019
:103510001FF0E5FA0122044B8571036003794471C1
:103520009343037170BDC04600B8020010B5037923
:10353000DB0702D50148FEF701FC10BDC02C0300DB
:1035400070B5050020201FF0CAFA05210B4B0400BE
:1035500003600800FFF7D4FF6B68EA68A06023618E
:1035600062602A7C2000A276AA689B1863616B7C4B
:10357000E3761EF081FF200070BDC04644B8020013
:1035800070B50D000400FFF7D1FF280009F062FCC0
:103590000100092802D90448FEF70CFA20001EF0A9
:1035A000D6FF024870BDC0465D2D030020ED02002D
:1035B000F7B5C3684269040093420BD1037E052B23
:1035C00008D1C37E181E43D020001EF055FFA0680E
:1035D0001EF0CBFF012500266B1E0193A768320069
:1035E000290038001EF07FFF3200030001993800E7
:1035F00001361EF085FF052EF0D10135052DEAD1EB
:1036000000252A0000230421A06801351EF078FF60
:10361000052DF6D1227E637E9A421AD2207FFFF7D3
:1036200055FF002507000426227E7B5DB21A134158
:10363000012213400832534304212A00A0680135B7
:103640001EF05EFF052DEFD1237EA06801332376A7
:10365000FEBD9A42F8D1E36861695A1CE2608A4271
:1036600005D120232377A023DB002383ECE75878C0
:10367000A67E2077002E01D0074BF6E7FFF726FF46
:10368000310005001EF0D8FE4042207628001EF0D2
:10369000E2FE01306076D7E7FF050000F0B50C00D0
:1036A0000B6889B0070018000493FFF73FFF6568B7
:1036B000280009F0EBFA1E4B984202D01D48FEF795
:1036C0003DFB072F01D11C48F9E7A06809F0C2FBB8
:1036D0000690E06809F0BEFB0790206909F0BAFB8C
:1036E0000590606909F0B6FB059B0600002B01DB25
:1036F000002802DA1148FEF75DF9062F14D0A06900
:1037000009F0A8FB0700E06909F0A4FB059B039002
:103710000093280002970196079B069A04991EF0D1
:1037200051FF074809B0F0BD00200700EEE7C04692
:1037300000B80200ED2C0300002D03001A2D030039
:1037400020ED020070B504000800160009F082FBAD
:103750000500300009F07EFB0600002D01DB00288B
:1037600002DA0C48FEF726F920001EF016FFA842E8
:1037700004DD20001EF01FFFB04201DC0648F1E727
:103780003200290020001EF0FBFE430001201843F8
:1037900070BDC046762D03008F2D0300F8B50D00D7
:1037A0000C682000FFF7C2FE686809F053FB0600B2
:1037B000A86809F04FFB0700002E01DB002802DAA1
:1037C0000F48FEF7F7F8E86809F044FB0500092800
:1037D00001D90C48F5E720001EF0DFFEB04204DD01
:1037E00020001EF0E8FEB84201DC0748E9E72B00A4
:1037F0003A00310020001EF083FE0448F8BDC046A8
:10380000762D03005D2D03008F2D030020ED0200B7
:10381000F7B50E0025490400019220F0DDFB019B65
:10382000002B03D12249200020F0D6FB21492000A3
:1038300020F0D2FB002530001EF0BDFEA84225DDA1
:10384000002730001EF0A9FEB8420CDD39002A0026
:1038500030001EF095FE184B18491A5C200020F02D
:10386000BBFB0137EDE71649200020F0B5FB019BBB
:10387000002B09D130001EF09EFE0138A84203DD66
:103880001049200020F0A8FB0135D4E709492000A9
:1038900020F0A2FB019B002B03D10B49200020F05C
:1038A0009BFB0A49200020F097FBF7BD1C2E03006C
:1038B000232E03002F2E0300312E03009C2C030027
:1038C000E95B0300292E0300B00E03001952030028
:1038D000F0B50E00110000228BB01C0000920323F3
:1038E0003000FEF761FA032E00D9CBE0300016F06D
:1038F00047FD020A898905210800FFF701FE0290B1
:103900001EF033FE18E020685F4B0340062B07D003
:10391000830700D073E05D4B02689A4200D06EE0EE
:1039200007A90DF087F8079B05900493012B06D19A
:1039300000781FF04BF8029002980BB0F0BD002306
:103940001E001A0003930499914216DD0599895CC3
:103950000A2901D03A2908D19E4200DA1E00039BB1
:103960000133039300230132EDE701332029FAD01C
:103970003929F8D94648FEF71DF8002B05D0039ADF
:10398000013203929E4200DA1E00002703993000A4
:10399000FFF7B6FD3D003C000290049BBB4221DDD9
:1039A000059BDB5D0A2B01D03A2B0DD1A64207DD2A
:1039B000210000232A0002981EF0A2FD0134F5E741
:1039C000002401350137E8E7202B07D1002321002F
:1039D0002A0002981EF094FD0134F3E7392BF1D848
:1039E000303BF4E7039BAB42A6DDA642A4DD2100F9
:1039F00000232A0002981EF083FD0134F5E72548D4
:103A0000FEF79CF9206809F025FA0500606809F0C6
:103A100021FA010007002800FFF772FD0290022E34
:103A200000D16DE7012207A9A06809F0CDFB002DA8
:103A30000ADB002F08DB089B002404933B006B4348
:103A4000049A0394934205D0134894E7039B0134EE
:103A50005B190393BC4200D16EE70026AE42F5D05D
:103A6000039A079B9446049363449A5D131C092AA6
:103A700000D909233100DBB2220002981EF040FD7C
:103A80000136EBE70548BBE7070080FF98B302006B
:103A90009F2D0300C82D0300E02D0300FD2D030022
:103AA000F0B585B0019105000021019816F042FEA5
:103AB000041E02D02148FDF77DFF28001EF06DFD99
:103AC000060028001EF077FD01003000FFF718FD0A
:103AD000070028001EF061FDA0422BDD0026320009
:103AE000210028001EF04CFD17F0A0FD019917F0F1
:103AF000ABFA19F02BFC0022114B17F021FE114BF1
:103B000000220290039116F0DBFD0923002804D067
:103B10000298039919F0A8FB030032003800210035
:103B20001EF0EEFC280001361EF037FDB042D6DC58
:103B30000134CEE7380005B0F0BDC046322D030099
:103B40000000E03F00002240F0B587B0070003917D
:103B500005921EF030FD040038001EF01EFD01909D
:103B600003981EF028FDA04202D01A48FDF722FF5C
:103B700021000198FFF7C4FC00250290019B9D42A3
:103B800024DA0026A6421FDA3200290038001EF08F
:103B9000F7FC32000490290003981EF0F1FC059B0D
:103BA000002B0BD0049B1B18092B00DD09233200CE
:103BB000290002981EF0A4FC0136E3E7049B1B1ABF
:103BC000DA43D2171340F2E70135D7E7029807B07E
:103BD000F0BDC0463C2E0300F8B5040008000D00FF
:103BE000160009F053F8164FB84201D000200FE03C
:103BF000053C042CFAD8200016F0B8FB141403F886
:103C00000B00300009F08CF9011C2800FFF748FF79
:103C1000F8BD300009F084F9011CFE20800517F082
:103C200037F8F1E7300009F031F8B842DED16242EE
:103C300062413100D2B22800FFF786FFE8E7C046B4
:103C400000B80200F7B507000193142008AB0E007E
:103C500015001C781EF043FF044B47600360019B76
:103C60008660C56003744474FEBDC04680B802001F
:103C700070B505000C201EF032FF0521044B040036
:103C8000456003600800FFF73BFCA060200070BDAA
:103C9000A8B4020010B53E2803D040282ED03C28FE
:103CA00016D1532927D016D84C2924D008D8482912
:103CB00055D049291FD042290AD10123180043E0D9
:103CC0004F2905D30123502916D9082051293BD06B
:103CD0002748FDF76FFE682941D006D8642941D0F6
:103CE000662908D06229F3D1E7E76C2903D071294E
:103CF00038D06929ECD10123042025E0512934D0A2
:103D000011D849290DD007D84229D6D002234829F5
:103D1000D4D00129DCD1D0E74C2902D0D8D34F2907
:103D2000D6D30423CAE76629FBD006D86229C4D0BB
:103D300064291AD05329F4D0CAE76929F1D007D8E9
:103D4000022318006829C3D1002A00D0136010BDD7
:103D50006C29E6D0082318007129F5D0B8E70123B3
:103D60000220F1E701230820EEE70823A6E7C0467A
:103D7000592E030010B551283DD017D8492810D02E
:103D80000AD8422828D048282BD0012824D0002344
:103D900001205B00184308E04F2848D017D84C2872
:103DA000F5D1920050581EF0B8F910BD682815D012
:103DB00007D8642830D0662824D06228E7D18B56F3
:103DC000E6E76C2803D071280ED06928DFD1920075
:103DD00050581EF087F9E8E78B5CD9E75200535E34
:103DE000D6E75200535AD3E7D2008A1810685168B8
:103DF0001EF069F9D9E7D2008A18106851681EF0E0
:103E00007DF9D2E703239200505898430300022023
:103E10001843084BC018C8E7D2008A1810685168C8
:103E200019F0E6FA032302009A431300EFE7920029
:103E30005058BAE700008080F7B51700156801AA4E
:103E400004000E00FFF726FF402C05D1019B043C27
:103E50005A1EAA185D4215405A213E3C62426241F8
:103E6000B14289412B183B60D2B22B0049421EF06F
:103E7000B9FD04000D004F2E08D0532E07D125F0B8
:103E800096FD0022010020000CF080F9FEBD662E98
:103E900006D1032302249843154B2043C018F5E7AD
:103EA000642E06D119F0A4FA0323040002209C43D7
:103EB000F2E75A2E0FD980220023D20512196B4146
:103EC000002B04D1002A02DB1EF00CF9DEE72900EA
:103ED0001EF0F9F8DAE7002905D1064B984202D81E
:103EE0001EF01BF9D2E729001EF008F9CEE7C04604
:103EF00000008080FFFFFF3FF0B589B0160005AAE3
:103F000002931C6801900F00FFF7C4FE019B05009F
:103F1000402B06D1059B5A1EA2185C423C2314403C
:103F20000193029A63191360019B3E3B03935A422B
:103F30005341DBB20293642F12D0662F0BD04F2F68
:103F40002AD12800042D00D9042033002200029930
:103F50001EF071FD2CE0300008F0E2FF0600F0E7F3
:103F6000300008F0DDFF19F0F1F9029B069007918F
:103F700008AA9B00D318083B22001B680299042062
:103F80001EF059FD039B04345A1E934108AA9B005E
:103F9000D318083B1E68D4E7B3070BD1104B326827
:103FA0009A4207D123002A00029930001EF067F8D8
:103FB00009B0F0BD300008F04DFF0600042DC0D957
:103FC00000215A2F02D9884200DAFF312A0020004E
:103FD00025F099FC019B3E2BB3D12B1FE418B0E7D1
:103FE000B0C60200F7B506000F0014001D006428DB
:103FF0000DD0662804D04F2813D19400E35105E07A
:10400000940018000F1908F08BFF3860F7BD1800F6
:1040100008F086FF19F09AF9E4003F1938607960DA
:10402000F4E703232B40019311D10E4B2A689A42E7
:104030000DD1019A01004020FFF72CFE23004343DD
:104040000200FB18019928001EF019F8DEE728008D
:1040500008F000FF22000300390030001EF000FDD0
:10406000D4E7C046B0C60200014BD8607047C046D6
:10407000802E0020034B82B0D86801ABC01A02B07A
:104080007047C046802E0020014B18617047C04623
:10409000802E002010B54E21024821F0FBFEFEF7D5
:1040A000EDFCC04634DD020007B5054A01ABD1681E
:1040B0001269CB1A9A4201D8FFF7ECFF07BDC04640
:1040C000802E00200022104B10491A60030012338A
:1040D000FF3341185A701A7004338B42FAD1010031
:1040E0000300002209310833FF311A709A705A70A8
:1040F000DA7004338B42F8D1C3237F229B00C25471
:10410000034B044A1A6070474C0100201103000061
:1041100004000020662E0300F0B500267E24320045
:1041200031009300C318FF335F7C7F2F4CD09B7C02
:10413000F618F6B2531CDBB2EF2E2AD9C1267D2524
:10414000B60086193700AC469C4516DA9B00C318AA
:10415000FF3359749974D97419757D230232D2B220
:10416000934211DA9300C318FF335C749974D974C5
:10417000197500260132D2B2D3E73D68043FBD6015
:1041800001256D42AC44DFE73568013B7560043EB4
:10419000E6E77D2FEED80D4DEF5D01252F42E9D0EA
:1041A000C1227D26920082189E4208DA9A00821867
:1041B000FF3254749174D17411751A00D9E71568DF
:1041C000013E5560043AEFE7F0BDC046492F0300B9
:1041D00070B5002140250D4C8B00C318FF335A7C6D
:1041E0007F2A11D0A25C0131C9B22A42F4D05A7D93
:1041F0007F2AF1D0A25C7F2AEED9DA7D56B2002E5A
:10420000EADD0132DA74E7E770BDC046F82E03003C
:104210000300F7B500214C4A1333FF33821819709D
:1042200004339A42FBD1FC239C4600258444634618
:104230002A001B690093009B9D4207D37F234432D1
:10424000920013540120FEBD0D00F4E76346DF68C1
:104250007C5D602C01D9203CE4B2691C009EC9B28F
:1042600000238E4204D07B5C602B01D9203BDBB263
:104270000026232C21D1303B092B02D9334B344A61
:104280000CE00235E9B2009C8C420AD8FF2BF5D82D
:10429000437053B2002BD7DA2C4B2E4A1A60002001
:1042A000D1E77C5C2500303D092DEFD80A256B4312
:1042B0000131303BE318C9B2E5E7F7B20197264F69
:1042C000F75DA74211D1254FF75D2A2F0DD0BB42D4
:1042D0000BD193000199C318FF335974417801320F
:1042E00002351975D2B2E9B2D3E70136512EE4D1C5
:1042F00000231A4D5E5DDFB22A2E0CD1164E9E5D54
:10430000A64208D19300C318FF335F74447801328A
:104310001C75D2B2BDE70133512BEBD1104D493B97
:104320002E7AA64208D0013D002B02D1074B0D4A40
:10433000B4E7013BDBB2F3E7002BF7D014004334C2
:10434000A4000419A370A4E71203000004000020D5
:104350007B2E0300692E03003730030088300300F2
:10436000D9300300892E030010B51130084A0949DD
:10437000FF3003787F2B00D110BD02240457002C9E
:1043800003DCCB5C43700430F3E7D35CFAE7C04650
:10439000E72F0300972F0300F0B50023070085B037
:1043A0009E00BE193100FF314A7C9C467F2A01D114
:1043B00005B0F0BD4F4B02209C5C63460133DBB27D
:1043C0000442EDD0012560462C4242D15419E0B29E
:1043D000009049487C35801840780190C87C097D60
:1043E00002900391C1218900791808009D4226DAC4
:1043F0009B000098FB18FF3358740198941C987424
:104400000298E4B2D874039818753B486346821842
:104410003000FF309578027D023300927D22C67C09
:10442000DBB29A4210DA9B00FB18FF335C749D7478
:10443000DE74009A1A7563460333DBB2B0E7046892
:10444000013D44600438D1E70868013A4860043906
:10445000E7E70130C0B2010044318900C95D00299D
:10446000F7D07F2908D008242248405C204297D109
:104470002439012900D893E73000511CC9B20091BA
:104480001D49FF30891849787D250191C17C029131
:10449000017D0391C121890079180C009D421FDA2A
:1044A0009B00009CFB18FF335C74019C124D9C74B4
:1044B000029CDC74039C1C75941CAA1863469678B5
:1044C000027D023300927D22C57CDBB2E4B29A42C7
:1044D0000BDA9B00FB18FF335C749E74DD74A8E755
:1044E0002668013D6660043CD8E70868013A4860E8
:1044F0000439ECE7F82E0300972F0300F7B50022EC
:104500009300C318FF335C7C002C03D10132D1B27D
:104510000A00F5E77F2C00D125E1102692490D5DB8
:10452000511CC9B2354215D14E2C3BD118220D2455
:10453000DD7C5C741E7DC1239B00C31870348C42EB
:1045400036DA8B00C318FF335A740022DD749A7474
:104550001E75DDE7DC7CAD06ED0FA4462C00C12501
:104560007D261434AD001F7D019445198E4214DA66
:104570008D00019C4519FF356C740024AC746446B1
:104580002F75EC745C7C352C00D0AEE05A7B774CF8
:10459000A25C5207BCD5102278E02C68013E6C600A
:1045A000043DE3E74F2C08D11B22C0E71C22BEE7E5
:1045B0001F68013C5F60043BC1E7502CF6D06DB230
:1045C000002D2BDADD7C002D28D00D004435AD0008
:1045D0002D5C002D22D1961CF5B20195AD00451938
:1045E000FF356F7C7F2F19D05F4EF75D7F2F15D978
:1045F000EF7C002F12D0C1237D229B00C318019CA9
:10460000944206DD1F236B740023AB74EB742B758F
:104610007EE71C68013A5C60043BF0E7172C09D088
:10462000182C35D15A7B504CA25C7F2A00D86FE7FA
:1046300013222BE05C7B013AD2B2452C1CD11B3CEF
:104640005C7315004335AD00474C2D5C655D7F2DD7
:1046500000D85DE70132D2B292008218FF32557C59
:10466000002D76D0645D7F2C00D851E7D27C002AE3
:1046700000D04DE71E3209E0392C01D10D3CDFE7B7
:10468000394A125D7F2A00D842E712225A743FE766
:10469000202C05D15A7B3C2A00D039E7163AF5E7A1
:1046A000482C15D15C7D7F2C02D14B245C7403E037
:1046B0002D4D2C5DA406F8D55C7C2B4D2D5DED07B2
:1046C00000D45FE75D7B202D3CD10C3C5C741FE780
:1046D0003C2CF1D15A7D7F2A00D119E7224CA25CF3
:1046E000920600D514E73F22D0E72A2C16D1DA7CB7
:1046F0001C7DC1237D259B00C3188D4209DA2B2523
:104700008B00C318FF335D740025DA749D741C752B
:10471000FEE61E68013D5E60043BEEE72C2C11D1E5
:10472000DA7C1C7DC1237D259B00C3188D4204DAF1
:104730008B00C318FF332D25E5E71E68013D5E6041
:10474000043BF3E7452C00D17BE7392C00D0DFE6B2
:1047500077E7527D7F2A00D1DAE6A25C7F2A00D873
:10476000D6E61E2292E7F7BDF82E0300492F03007C
:10477000F7B500240090E3B24433009A9B009B5CA1
:10478000E5B27F2B32D0574EF35CDB072CD56A1E87
:10479000D2B2009B443292009A182B00524F013B38
:1047A000DBB2002B23D011787F2903D0795C043A47
:1047B0007F29F4D900999A008A18FF32517C7F2909
:1047C0000ED02027705C384204D04748415C04205A
:1047D000014205D0917C48088446013161449174BE
:1047E0000133DBB29D42E5D10134C4E70023022648
:1047F0000DE07B0705D4FB0708D5937CD9085B1A2D
:104800002FE08B7B9A080133D3188B73019B009A9E
:10481000990051180A00FF32557C7F2D60D0324C30
:10482000581C675DC0B2019078B200281BDA01996C
:10483000009889004118FF314D7C7F2DE6D0402043
:10484000675D0742D5D1123D012DDFD80233DBB2BF
:10485000443300999B005B5CE35C0342D6D0937CBD
:10486000013B9374D2E71F48455D082005420FD0F5
:10487000019B009A9B00D318FF335A7C7F2AC5D036
:10488000A25C3242C2D006229A7405229A73BDE716
:1048900037421BD00133DBB21A0000984432920039
:1048A000125C002AF6D07F2AB0D00F4CA25C3242B4
:1048B000ACD09B00C318FF339A7CFF315208013201
:1048C0009A748B7C5B0801338B749FE710231D4225
:1048D0009CD0537BE35C334298D0937C023BC0E78F
:1048E000F7BDC046492F0300F82E030070B5040041
:1048F000FFF7E8FB2000FFF78BFC23000022FC33CE
:10490000DA601A61904226D02500224E11353368B4
:10491000FF35934203D029001F480AF033FB2000E3
:10492000FFF7ECFD2000FFF753FC2000FFF71CFD14
:104930002000FFF71DFF2000FFF72EFDC4222B00F3
:104940009200A1181A78502A06D97F2A07D0002091
:10495000124B134A1A6070BD04338B42F2D1336894
:10496000002B02D00F481CF0D3FC2000FFF7D4FB33
:104970003368002B03D029000B480AF003FB20000A
:104980001EF0E4F8054B0949186825F006F8434283
:104990005841E0E71C2B0020A02E0300040000205B
:1049A000AF2E0300D52E0300E52E0300662E030074
:1049B000F8B5050010200C001F0016001EF08FF83F
:1049C000054B44608460A4190760C4606B60034BAE
:1049D0002860AB60F8BDC046A52B0200BB2B0200CF
:1049E00000B58BB00DF00AF968461EF0F2F8054BE1
:1049F000D968091A89080DF0BDF80DF017F90BB048
:104A000000BDC046802E0020F7B503780400002BBF
:104A100001D10020FEBD402B20D1012301930023B2
:104A200004221E001D00190094462278002A3ED15F
:104A300001200029EEDC002DECDC002EEADC033B3B
:104A40008342E7D9013C23785C2BE3D0019A002A0A
:104A5000DFD00A3B581E8341D8B2DBE73F491EF046
:104A6000CAF80028D9D13E4920001EF0C4F8002819
:104A7000D3D13C4920001EF0BEF80028CDD13A49E0
:104A800020001EF0B8F80028C7D1384920001EF0D9
:104A9000B2F80028C1D1364920001EF0ACF8002839
:104AA000BBD1344920001EF0A6F80190B7E760782A
:104AB000272A0AD1002B46D0032B02D127284AD11E
:104AC00043E0012B47D8012244E0222A11D11A00E9
:104AD0006746BA4309D1222805D1A278222A02D1F9
:104AE0000234624636E0002B01D0022B33D1022281
:104AF00030E05C2A0AD1272803D0222801D05C2884
:104B000004D11A00501E8241A41824E0002B22D1A7
:104B10005B2A12D006D8282A0DD0293A504250419B
:104B2000091A18E07B2A0AD07D2A0AD05D3A504241
:104B300050412D1A0FE001310DE001350BE0013637
:104B400009E0013E07E02728BDD1A278272AB8D185
:104B50000234243AD31A013467E7C0467D5003007B
:104B6000EE300300F4300300F83003002B24030080
:104B7000E89803002F540300F0B58BB00793431857
:104B80000390049201930093009B5C1E039BA3423D
:104B900001D9009310E0207810F0C2FA002801D06B
:104BA0000094F1E7207810F0C7FA0028F8D12378B4
:104BB0005F2BF5D02E2BF3D07E4B1D68009C019B04
:104BC0009C4202D223782E2B21D1009BE71A019B15
:104BD0009C4241D30024260002940194AB68A34276
:104BE00056D8019B002B00D084E0009B039A93428F
:104BF0002FD1714C3A002100180024F05AFE0028F1
:104C000027D1079BE41907301C60C01B22E0013448
:104C1000D5E70136AB68B3421BD9F3000293EB68CA
:104C2000F20098580028F4D00428F2D009A90BF01B
:104C300001FF099B0100BB42EBD13A00009824F030
:104C4000BDFE0028E5D1EB68029A9B185868002841
:104C500004D100200BB0F0BD0026DBE7032318428F
:104C60000CD10368554A934205D11DF0F1F80500B7
:104C7000631C0093A2E7524A934201D008F006F861
:104C8000856B002DE5D04F4B2A689A42F0D0E0E7C3
:104C9000EA68E300985800281CD004281AD009A913
:104CA0000BF0C8FE099B06900593BB4212D301008E
:104CB0003A00009824F082FE00280BD1029B002BC2
:104CC00012D03B009E4202D3059A9A4204D2019B25
:104CD00001330193013481E7029AD15C069AD25CD8
:104CE000914205D10133EDE7069B059E0293EEE765
:104CF0001E00ECE7019B012B01D0BE4255D9029B5F
:104D0000079ADB191360F01BA4E7029BEA68DB003B
:104D1000985800282CD004282AD009A90BF08AFE24
:104D2000099B03900593BB4222D301003A000098EF
:104D300024F044FE019000281AD133000F220F33D3
:104D4000DC171440E41824112401A41B012C00DCFE
:104D50001034059A33199B18402B1FD8019B9C4295
:104D600014DC039904981FF079F8099BF61836199A
:104D7000029B01330293AB68029A9342C5D8124951
:104D800004981FF06BF80120404263E70F49049834
:104D90001FF064F8019B01330193DFE7039A0C498C
:104DA00004981FF019F9099EE2E7002340260293B8
:104DB000E1E7C046802E0020E230030084A102001B
:104DC000B0D7020078CC0200B00E0300272E0300FB
:104DD000EA300300F0B58BB0089310AB10CB019014
:104DE00006911B78062A12D8012A08D93F230B7096
:104DF0000B0001330693002306990B7001E0002A93
:104E0000F9D101259542AD4168420BB0F0BD019941
:104E100000292DDA069B06995D1C2D230B7080213D
:104E200009068C46019B63440193069BFF21E81A07
:104E3000131A019A04931000013BC9050593084019
:104E40002023884221D14E21089AE81C1A401300E1
:104E50001143019A570212D149225A402A70462220
:104E600053406970AB700023EB70069BC01ACCE70F
:104E7000069D002BD9D0290001350B70D5E74124C0
:104E8000634029706B70A970EDE7002C00DA0624EE
:104E900008991943029167293DD1002C00D1D8E12E
:104EA000002A79D0A74B9A4200D9D8E0A6490198A8
:104EB00015F05EFC0026431E984120233700303059
:104EC00007900393A14B0199F05815F047FC002877
:104ED00007D0039B0198FF189D4BF15816F0B4F8CA
:104EE0000190039B04365B100393182EEAD12D2307
:104EF000019A0393934B934265D39349019815F01C
:104F000037FC002859D0002F01D12B230393FE2317
:104F10009B05019357E0002AC4D1029B662B3BD12D
:104F2000059A631C934201DB049C033C029B661CB4
:104F3000049300231F0003930593E343DB171C40F6
:104F4000049B652B00D0F3E0661C059B0793059B33
:104F5000079A9B1A9E4250DD019816F047FB6B1C86
:104F60000993030030332B70079B002B05D1002CD5
:104F700003D0AB1C09932E236B7016F057FB011C5A
:104F8000019816F077F9734916F05EF8079B0190C7
:104F9000013B0793099DDAE7059A631D934201DB04
:104FA000049C073C029B652B00D0B2E000260493D2
:104FB0003A3B039305963700BFE70198654916F021
:104FC00043F801370190029B662B03D0672B38D141
:104FD000042F36DC079B2B70029B672B01D17B1EB5
:104FE000E418059A631C934201DB049C033C002CEB
:104FF00012D16623013504930394029B662B00D0E3
:10500000AEE0012F00DDE4E05349019815F0B0FB5C
:10501000002800D1DDE0A9E02E23260030226B70AD
:10502000AB1C013F1D00002F78D0002E05D1039648
:1050300001235B420593673369E01A70013E013337
:10504000EFE7049B063BA3426DDC029A672A67D018
:105050001300049C073C0026049305966DE7002688
:105060002023370003933A4B0199F05815F06CFB5D
:10507000002807D0039B0198FF18344BF15815F016
:10508000E3FF0190039B04365B100393182EEAD1D3
:105090003049019815F06CFB002805D001982F4984
:1050A00015F0D2FF01370190029B662B0DD1059BB5
:1050B0009F420EDA3B19059A0133934221DBD41B40
:1050C000023C631C1DD100241BE0029B652B00D019
:1050D000B6E0049B063BA34201DC049C073C2B2367
:1050E0000026039305963A3311E0059A231D934257
:1050F00001DB049C063C029BA74200DBA4E07B1C76
:10510000E41A00233E19039301360597663304938E
:1051100013E70026029B039604934BE7039787E768
:105120001C00029B97E70026029B0596049307E765
:10513000049B672B00D008E7261E00D005E7012658
:10514000340002E7FFFF7F3FF8FF7F3F5CC20200B1
:1051500074C20200000020410000A040CDCCCC3D34
:105160003D49019815F004FB002823D03020691E2A
:105170000A780B002E2A4ED01600303E092E4CD94C
:1051800001331A78302A15D159782E2952D1049832
:1051900066284FD05A70039A19702D2A48D1013FC2
:1051A000002F01D1023A03922A00511E934243D3A9
:1051B00031221A70029B672B0BD1002C09D06A1E7A
:1051C000551C013A5378302BFAD02E3B5A425341AA
:1051D000ED1A039B002B19D02022089B0A211340B3
:1051E0001A00452313432B70039B38006B7015F096
:1051F00065F90A2115F048FA3031A97038000A2102
:1052000015F042FA2C1D3031E970250000232B7077
:10521000069BE81AF9E50139AAE7392A02D00132DA
:105220000A70AEE7069A08708A42F4D11300A8E724
:105230000137B9E70135B7E70A784A700A00B4E7E1
:10524000029B672B00D150E704932B230026039386
:1052500003E7012424E6C0460000A040F7B505009E
:105260002C200E00170001931DF04BFC040005706C
:1052700086608781072D01D0012D10D13378727897
:105280000A3B1B0213439BB2E381019B2020637501
:10529000042363841DF023FCA0622000FEBD014BAB
:1052A0005B5DF1E7FC300300A3230021024A5B00B1
:1052B0000248D1527047C046802E002020ED0200E7
:1052C000A3230121024A5B000248D1527047C04625
:1052D000802E002020ED0200A323044A5B00D35A55
:1052E0000348002B00D103487047C046802E0020A1
:1052F000ECED0200E4ED020010B5FFF771FB014890
:1053000010BDC04620ED020010B50C4C002808D19D
:10531000FC34236D18005A1C02D018011CF0E2FE68
:1053200010BD086807F096FDFC34031E044803DA3C
:1053300001235B422365F3E71B09FBE7802E002076
:1053400020ED0200F0B5304B8FB007AE013800936E
:10535000043107230196FCF757FD0023B0682B4F5B
:105360000393B84203D007F075FDC3B2039370698D
:105370001825B84202D020F0E0FF45B2B0691924E8
:10538000B84202D020F0D9FF44B23069B8420DD003
:1053900005AA022107F024FE059B186820F0CDFF26
:1053A000059B45B2586820F0C8FF44B201210E00A9
:1053B000A022AE40A140164BD205D75815483E4317
:1053C0000590D650D6588E43D650134A03218550A7
:1053D000C450280024F03EF92000032124F03AF9BB
:1053E000079905A814F0E8FB0A9B039A089905A8F9
:1053F00014F0F2FB0799094815F060F8084B0130EA
:10540000188002480FB0F0BDBCC3020020ED0200BE
:1054100014050000002000400C050000C832000008
:10542000BC2D002010B507F039FB034B002800D13C
:10543000024B180010BDC046ECED0200E4ED020086
:10544000F7B50E0014001D00002A07D007F026FB58
:10545000002805D10B2301242B6064422000FEBDEF
:105460003500013CA319009307F024FB009B6C1C42
:105470002870AB4210D0094B1B8801931FF076FCBB
:10548000070007F00BFB25000028EDD11FF06EFC94
:10549000019BC01B8342F4D8A41BDFE7BC2D002076
:1054A00010B5024B67221DF0D4FC10BD713702000D
:1054B00010B5024B97221DF0CCFC10BDB966000060
:1054C000F8B50F0011001A00002304008579466921
:1054D000837143610E4B1DF0BCFCA368002B15D1FA
:1054E000E18A002908D0A38A002B05D1206B20F087
:1054F0004DFA206B20F0CAF8A38AE28A3900200016
:105500001DF058FC6B1E9D416661A571F8BDC0463B
:10551000D562000010B54379C26A012B03D1100097
:105520001FF0ADFB10BD0B00006B02491FF0D1FB5B
:10553000F8E7C04680D402007FB50B7804000D0068
:105540004E1C002B0AD0032B0BD103A9280022F0FC
:10555000BDFB03990600206B20F02EF8300004B04C
:1055600070BD012B07D18E1C49780429F6D0006B41
:1055700008F054FEF2E7042B0BD14B788978006BCE
:105580000902194320F061F8280022F0DAFB060036
:10559000E4E7052B15D14379042B04D02649006B91
:1055A00020F05FF8F0E788784B780002184303A9F1
:1055B0001CF024FD0399246B0AF000FE010020007A
:1055C000EEE71A000A3A0F2A09D803A928001DF0AD
:1055D000C5FB039906002000FFF79CFFBEE7082BE0
:1055E0000CD103A9280022F067FB039B226A9B00D1
:1055F00006009958206B20F034F8AFE703AB02AAFD
:1056000001A9280022F0CEFB05000299206B08F0CA
:10561000BBFD019B094A9B009B582900039A20006F
:105620009847A368002B04D0E368002B01D1029BAC
:10563000E360039E92E7C04620ED020008C402002A
:10564000F7B506000192FFF777FF04270500019BDD
:105650009D4200D1F7BDA91C30006C78FFF76CFFAC
:105660002F3CE4B205003900082C01D8024B195D2B
:10567000306B20F069F9EAE70331030010B5437994
:10568000C26A012B03D110001FF00AFB10BD0B00F2
:10569000006B02491FF01DFBF8E7C04690D40200E2
:1056A00010B54379C26A012B03D110001FF0F8FA3C
:1056B00010BD0B00006B02491FF00BFBF8E7C04662
:1056C00070D40200836870B504000D00002B09D16E
:1056D0001100054820F0E5FBA060200029000C30F7
:1056E0001DF0D9FD70BDC046ACDD020010B5024A08
:1056F000FFF7E8FF10BDC0464B340300F0B50400CF
:105700000D00E162002162712B7891B00592016178
:105710009D4A072B3AD1059B012B06D00200836BD3
:1057200008321B680599406B9847AB6818000893CE
:1057300022F007FB63790890032B0FD10D904021D5
:105740000DA822F017FBA36B02009B680D99606BFC
:105750009847A368E882002B00D0D2E0089822F096
:10576000F0FA08900378002B4ED00A3B0F2B46D856
:105770000DA91DF0F3FA0D9B844A934244D00AD838
:105780000125834A93420DD0824A08992000FFF7F1
:1057900099FF11B0F0BD804A934202D07F4A0325A1
:1057A000F0E70025089822F0CCFA1821089008A804
:1057B00022F0E0FA089B07900693069B079A934213
:1057C00024D16379012B15D9A36B29005B68606B29
:1057D00098476379042B0DD10023E06A0395029367
:1057E000C18A626B0191009393680521D2680069B8
:1057F00006F0A2FBA368002B00D082E0C9E70100FD
:10580000674A2000FFF75EFF0225CBE7069B08935F
:105810001B78222B04D1069822F093FA0690CCE74D
:105820001F2B01D05F4AB0E709A9069822F093FA2E
:1058300003780600432BF5D122F083FA099B9842A6
:10584000F0D109A9300022F086FA037807000A3B5C
:105850000F2BE7D822F075FA099B06008342E1D0AE
:105860000378472BDED122F06CFA099B9842D9D1FC
:105870000AA938001DF072FA300022F067FA9F2161
:105880000B900BA822F076FA01000B9822F04DFA4B
:105890000A9B454A060093421BD1012804D10B986C
:1058A00003780A3B0F2B01D9404A6EE72669731C27
:1058B0002361059B012B21D00DA91DF04FFAA36B8D
:1058C0000D9ADB683100606B9847002816D1384A82
:1058D0005BE7384A93421AD1012803D10B98037829
:1058E000032B01D0344A50E7059B012B06D0666B91
:1058F00022F0FBF90100300021F0A6FEA368002B86
:1059000089D0200008990C301DF0C5FC41E72B4AD6
:10591000934222D1012803D90B980378032B01D09D
:10592000274A32E7059B012BE8D00CA922F0CEF9DB
:1059300001270B900B980378032B01D0214A24E711
:105940000DA922F0C3F901370B900D9A0C99606BE9
:1059500021F081FEBE42EDD1D0E7059B012BCDD0D9
:10596000032800D95EE70B9B18000D9322F0E9F99C
:105970000E9022F0E6F9A36B0F901F6932000DAB79
:105980000A99606BB847B9E7403303006102000031
:1059900016020000643303009F020000EA020000C8
:1059A000713303009933030079020000BC33030014
:1059B000D833030009020000E83303002E02000080
:1059C0000434030029340300F0B517000A0087B03F
:1059D0000493531E9A410D00060004993800059265
:1059E00022F0A3F92C1E039009D02B7800243A2B27
:1059F00005D102002100306B20F039F82C00059B06
:105A000001970293019B049A93421DD1002C3BD134
:105A1000039A059B944663441900306B20F01BF8F1
:105A2000002D3ED1049B9F422CD0BC423CD1200093
:105A300022F08CF900220100300000F03BF8380021
:105A400022F07FF90700EDE7019B1B783A2B0CD180
:105A5000002C12D1059B306B5A1E039BD218029B5F
:105A6000D21A190020F003F8019C019822F069F97C
:105A7000029B019001330293C4E70D4A0199300063
:105A8000FFF720FE07B0F0BD002DCBD0AC4208D10F
:105A9000200022F05BF900220100300000F00AF83B
:105AA000C0E700222900F8E700223900C4E7C04619
:105AB00076310300F0B50B7817001A000A3A85B06A
:105AC00004000D000F2A10D803A928001DF046F984
:105AD00003992000002F01D0022F03D1FFF7CEFD44
